{
  "_format": "hh-sol-artifact-1",
  "contractName": "Message",
  "sourceName": "contracts/MessageDemo.sol",
  "abi": [
    {
      "inputs": [
        {
          "internalType": "string",
          "name": "_data",
          "type": "string"
        }
      ],
      "name": "postMessage",
      "outputs": [],
      "stateMutability": "nonpayable",
      "type": "function"
    },
    {
      "inputs": [
        {
          "internalType": "address",
          "name": "",
          "type": "address"
        },
        {
          "internalType": "uint256",
          "name": "",
          "type": "uint256"
        }
      ],
      "name": "posts",
      "outputs": [
        {
          "internalType": "string",
          "name": "",
          "type": "string"
        }
      ],
      "stateMutability": "view",
      "type": "function"
    },
    {
      "inputs": [
        {
          "internalType": "address",
          "name": "_user",
          "type": "address"
        }
      ],
      "name": "readMessages",
      "outputs": [
        {
          "internalType": "string[]",
          "name": "",
          "type": "string[]"
        }
      ],
      "stateMutability": "view",
      "type": "function"
    }
  ],
  "bytecode": "0x608060405234801561001057600080fd5b50610b97806100206000396000f3fe608060405234801561001057600080fd5b50600436106100415760003560e01c80630459ed72146100465780635c538df3146100765780636630f88f146100a6575b600080fd5b610060600480360381019061005b919061043c565b6100c2565b60405161006d91906105bb565b60405180910390f35b610090600480360381019061008b9190610613565b61029d565b60405161009d919061069d565b60405180910390f35b6100c060048036038101906100bb9190610724565b610356565b005b606060008060008473ffffffffffffffffffffffffffffffffffffffff1673ffffffffffffffffffffffffffffffffffffffff16815260200190815260200160002080549050905060008167ffffffffffffffff81111561012657610125610771565b5b60405190808252806020026020018201604052801561015957816020015b60608152602001906001900390816101445790505b50905060005b82811015610292576000808673ffffffffffffffffffffffffffffffffffffffff1673ffffffffffffffffffffffffffffffffffffffff16815260200190815260200160002081815481106101b7576101b66107a0565b5b9060005260206000200180546101cc906107fe565b80601f01602080910402602001604051908101604052809291908181526020018280546101f8906107fe565b80156102455780601f1061021a57610100808354040283529160200191610245565b820191906000526020600020905b81548152906001019060200180831161022857829003601f168201915b50505050508260018386610259919061085e565b610263919061085e565b81518110610274576102736107a0565b5b6020026020010181905250808061028a90610892565b91505061015f565b508092505050919050565b600060205281600052604060002081815481106102b957600080fd5b906000526020600020016000915091505080546102d5906107fe565b80601f0160208091040260200160405190810160405280929190818152602001828054610301906107fe565b801561034e5780601f106103235761010080835404028352916020019161034e565b820191906000526020600020905b81548152906001019060200180831161033157829003601f168201915b505050505081565b6000803373ffffffffffffffffffffffffffffffffffffffff1673ffffffffffffffffffffffffffffffffffffffff1681526020019081526020016000208282909180600181540180825580915050600190039060005260206000200160009091929091929091929091925091826103cf929190610a91565b505050565b600080fd5b600080fd5b600073ffffffffffffffffffffffffffffffffffffffff82169050919050565b6000610409826103de565b9050919050565b610419816103fe565b811461042457600080fd5b50565b60008135905061043681610410565b92915050565b600060208284031215610452576104516103d4565b5b600061046084828501610427565b91505092915050565b600081519050919050565b600082825260208201905092915050565b6000819050602082019050919050565b600081519050919050565b600082825260208201905092915050565b60005b838110156104cf5780820151818401526020810190506104b4565b60008484015250505050565b6000601f19601f8301169050919050565b60006104f782610495565b61050181856104a0565b93506105118185602086016104b1565b61051a816104db565b840191505092915050565b600061053183836104ec565b905092915050565b6000602082019050919050565b600061055182610469565b61055b8185610474565b93508360208202850161056d85610485565b8060005b858110156105a9578484038952815161058a8582610525565b945061059583610539565b925060208a01995050600181019050610571565b50829750879550505050505092915050565b600060208201905081810360008301526105d58184610546565b905092915050565b6000819050919050565b6105f0816105dd565b81146105fb57600080fd5b50565b60008135905061060d816105e7565b92915050565b6000806040838503121561062a576106296103d4565b5b600061063885828601610427565b9250506020610649858286016105fe565b9150509250929050565b600082825260208201905092915050565b600061066f82610495565b6106798185610653565b93506106898185602086016104b1565b610692816104db565b840191505092915050565b600060208201905081810360008301526106b78184610664565b905092915050565b600080fd5b600080fd5b600080fd5b60008083601f8401126106e4576106e36106bf565b5b8235905067ffffffffffffffff811115610701576107006106c4565b5b60208301915083600182028301111561071d5761071c6106c9565b5b9250929050565b6000806020838503121561073b5761073a6103d4565b5b600083013567ffffffffffffffff811115610759576107586103d9565b5b610765858286016106ce565b92509250509250929050565b7f4e487b7100000000000000000000000000000000000000000000000000000000600052604160045260246000fd5b7f4e487b7100000000000000000000000000000000000000000000000000000000600052603260045260246000fd5b7f4e487b7100000000000000000000000000000000000000000000000000000000600052602260045260246000fd5b6000600282049050600182168061081657607f821691505b602082108103610829576108286107cf565b5b50919050565b7f4e487b7100000000000000000000000000000000000000000000000000000000600052601160045260246000fd5b6000610869826105dd565b9150610874836105dd565b925082820390508181111561088c5761088b61082f565b5b92915050565b600061089d826105dd565b91507fffffffffffffffffffffffffffffffffffffffffffffffffffffffffffffffff82036108cf576108ce61082f565b5b600182019050919050565b600082905092915050565b60008190508160005260206000209050919050565b60006020601f8301049050919050565b600082821b905092915050565b6000600883026109477fffffffffffffffffffffffffffffffffffffffffffffffffffffffffffffffff8261090a565b610951868361090a565b95508019841693508086168417925050509392505050565b6000819050919050565b600061098e610989610984846105dd565b610969565b6105dd565b9050919050565b6000819050919050565b6109a883610973565b6109bc6109b482610995565b848454610917565b825550505050565b600090565b6109d16109c4565b6109dc81848461099f565b505050565b5b81811015610a00576109f56000826109c9565b6001810190506109e2565b5050565b601f821115610a4557610a16816108e5565b610a1f846108fa565b81016020851015610a2e578190505b610a42610a3a856108fa565b8301826109e1565b50505b505050565b600082821c905092915050565b6000610a6860001984600802610a4a565b1980831691505092915050565b6000610a818383610a57565b9150826002028217905092915050565b610a9b83836108da565b67ffffffffffffffff811115610ab457610ab3610771565b5b610abe82546107fe565b610ac9828285610a04565b6000601f831160018114610af85760008415610ae6578287013590505b610af08582610a75565b865550610b58565b601f198416610b06866108e5565b60005b82811015610b2e57848901358255600182019150602085019450602081019050610b09565b86831015610b4b5784890135610b47601f891682610a57565b8355505b6001600288020188555050505b5050505050505056fea264697066735822122068c69b4da41a3c6092fd93543b13472b51063e8e6a20c0d25bb4689e51b01dee64736f6c63430008120033",
  "linkReferences": {},
  "deployedLinkReferences": {}
}